{
  "abi": [
    {
      "inputs": [],
      "name": "ApprovalCallerNotOwnerNorApproved",
      "type": "error"
    },
    {
      "inputs": [],
      "name": "ApprovalQueryForNonexistentToken",
      "type": "error"
    },
    {
      "inputs": [],
      "name": "BalanceQueryForZeroAddress",
      "type": "error"
    },
    {
      "inputs": [],
      "name": "ERC165Base__InvalidInterfaceId",
      "type": "error"
    },
    {
      "inputs": [],
      "name": "MintERC2309QuantityExceedsLimit",
      "type": "error"
    },
    {
      "inputs": [],
      "name": "MintToZeroAddress",
      "type": "error"
    },
    {
      "inputs": [],
      "name": "MintZeroQuantity",
      "type": "error"
    },
    {
      "inputs": [
        {
          "internalType": "address",
          "name": "operator",
          "type": "address"
        }
      ],
      "name": "OperatorNotAllowed",
      "type": "error"
    },
    {
      "inputs": [],
      "name": "Ownable__NotOwner",
      "type": "error"
    },
    {
      "inputs": [],
      "name": "Ownable__NotTransitiveOwner",
      "type": "error"
    },
    {
      "inputs": [],
      "name": "OwnerQueryForNonexistentToken",
      "type": "error"
    },
    {
      "inputs": [],
      "name": "OwnershipNotInitializedForExtraData",
      "type": "error"
    },
    {
      "inputs": [],
      "name": "TransferCallerNotOwnerNorApproved",
      "type": "error"
    },
    {
      "inputs": [],
      "name": "TransferFromIncorrectOwner",
      "type": "error"
    },
    {
      "inputs": [],
      "name": "TransferToNonERC721ReceiverImplementer",
      "type": "error"
    },
    {
      "inputs": [],
      "name": "TransferToZeroAddress",
      "type": "error"
    },
    {
      "inputs": [],
      "name": "URIQueryForNonexistentToken",
      "type": "error"
    },
    {
      "anonymous": false,
      "inputs": [
        {
          "indexed": true,
          "internalType": "address",
          "name": "owner",
          "type": "address"
        },
        {
          "indexed": true,
          "internalType": "address",
          "name": "approved",
          "type": "address"
        },
        {
          "indexed": true,
          "internalType": "uint256",
          "name": "tokenId",
          "type": "uint256"
        }
      ],
      "name": "Approval",
      "type": "event"
    },
    {
      "anonymous": false,
      "inputs": [
        {
          "indexed": true,
          "internalType": "address",
          "name": "owner",
          "type": "address"
        },
        {
          "indexed": true,
          "internalType": "address",
          "name": "operator",
          "type": "address"
        },
        {
          "indexed": false,
          "internalType": "bool",
          "name": "approved",
          "type": "bool"
        }
      ],
      "name": "ApprovalForAll",
      "type": "event"
    },
    {
      "anonymous": false,
      "inputs": [
        {
          "indexed": true,
          "internalType": "uint256",
          "name": "fromTokenId",
          "type": "uint256"
        },
        {
          "indexed": false,
          "internalType": "uint256",
          "name": "toTokenId",
          "type": "uint256"
        },
        {
          "indexed": true,
          "internalType": "address",
          "name": "from",
          "type": "address"
        },
        {
          "indexed": true,
          "internalType": "address",
          "name": "to",
          "type": "address"
        }
      ],
      "name": "ConsecutiveTransfer",
      "type": "event"
    },
    {
      "anonymous": false,
      "inputs": [
        {
          "indexed": false,
          "internalType": "string",
          "name": "prevURI",
          "type": "string"
        },
        {
          "indexed": false,
          "internalType": "string",
          "name": "newURI",
          "type": "string"
        }
      ],
      "name": "ContractURIUpdated",
      "type": "event"
    },
    {
      "anonymous": false,
      "inputs": [
        {
          "indexed": true,
          "internalType": "address",
          "name": "newRoyaltyRecipient",
          "type": "address"
        },
        {
          "indexed": false,
          "internalType": "uint256",
          "name": "newRoyaltyBps",
          "type": "uint256"
        }
      ],
      "name": "DefaultRoyalty",
      "type": "event"
    },
    {
      "anonymous": false,
      "inputs": [
        {
          "indexed": true,
          "internalType": "address",
          "name": "previousOwner",
          "type": "address"
        },
        {
          "indexed": true,
          "internalType": "address",
          "name": "newOwner",
          "type": "address"
        }
      ],
      "name": "OwnershipTransferred",
      "type": "event"
    },
    {
      "anonymous": false,
      "inputs": [
        {
          "indexed": true,
          "internalType": "uint256",
          "name": "tokenId",
          "type": "uint256"
        },
        {
          "indexed": true,
          "internalType": "address",
          "name": "royaltyRecipient",
          "type": "address"
        },
        {
          "indexed": false,
          "internalType": "uint256",
          "name": "royaltyBps",
          "type": "uint256"
        }
      ],
      "name": "RoyaltyForToken",
      "type": "event"
    },
    {
      "anonymous": false,
      "inputs": [
        {
          "indexed": true,
          "internalType": "address",
          "name": "from",
          "type": "address"
        },
        {
          "indexed": true,
          "internalType": "address",
          "name": "to",
          "type": "address"
        },
        {
          "indexed": true,
          "internalType": "uint256",
          "name": "tokenId",
          "type": "uint256"
        }
      ],
      "name": "Transfer",
      "type": "event"
    },
    {
      "inputs": [
        {
          "internalType": "uint256",
          "name": "_index",
          "type": "uint256"
        }
      ],
      "name": "_getBatchIdAtIndex",
      "outputs": [
        {
          "internalType": "uint256",
          "name": "",
          "type": "uint256"
        }
      ],
      "stateMutability": "view",
      "type": "function"
    },
    {
      "inputs": [
        {
          "internalType": "address",
          "name": "operator",
          "type": "address"
        },
        {
          "internalType": "uint256",
          "name": "tokenId",
          "type": "uint256"
        }
      ],
      "name": "approve",
      "outputs": [],
      "stateMutability": "payable",
      "type": "function"
    },
    {
      "inputs": [
        {
          "internalType": "address",
          "name": "owner",
          "type": "address"
        }
      ],
      "name": "balanceOf",
      "outputs": [
        {
          "internalType": "uint256",
          "name": "",
          "type": "uint256"
        }
      ],
      "stateMutability": "view",
      "type": "function"
    },
    {
      "inputs": [
        {
          "internalType": "address",
          "name": "_to",
          "type": "address"
        },
        {
          "internalType": "uint256",
          "name": "_quantity",
          "type": "uint256"
        },
        {
          "internalType": "string",
          "name": "_baseURI",
          "type": "string"
        }
      ],
      "name": "batchMintTo",
      "outputs": [],
      "stateMutability": "nonpayable",
      "type": "function"
    },
    {
      "inputs": [
        {
          "internalType": "uint256",
          "name": "_tokenId",
          "type": "uint256"
        }
      ],
      "name": "burn",
      "outputs": [],
      "stateMutability": "nonpayable",
      "type": "function"
    },
    {
      "inputs": [],
      "name": "contractURI",
      "outputs": [
        {
          "internalType": "string",
          "name": "",
          "type": "string"
        }
      ],
      "stateMutability": "view",
      "type": "function"
    },
    {
      "inputs": [
        {
          "internalType": "uint256",
          "name": "_tokenId",
          "type": "uint256"
        }
      ],
      "name": "exists",
      "outputs": [
        {
          "internalType": "bool",
          "name": "",
          "type": "bool"
        }
      ],
      "stateMutability": "nonpayable",
      "type": "function"
    },
    {
      "inputs": [
        {
          "internalType": "uint256",
          "name": "tokenId",
          "type": "uint256"
        }
      ],
      "name": "getApproved",
      "outputs": [
        {
          "internalType": "address",
          "name": "",
          "type": "address"
        }
      ],
      "stateMutability": "view",
      "type": "function"
    },
    {
      "inputs": [],
      "name": "getBaseURICount",
      "outputs": [
        {
          "internalType": "uint256",
          "name": "",
          "type": "uint256"
        }
      ],
      "stateMutability": "view",
      "type": "function"
    },
    {
      "inputs": [
        {
          "internalType": "uint256",
          "name": "_index",
          "type": "uint256"
        }
      ],
      "name": "getBatchIdAtIndex",
      "outputs": [
        {
          "internalType": "uint256",
          "name": "",
          "type": "uint256"
        }
      ],
      "stateMutability": "view",
      "type": "function"
    },
    {
      "inputs": [],
      "name": "getDefaultRoyaltyInfo",
      "outputs": [
        {
          "internalType": "address",
          "name": "",
          "type": "address"
        },
        {
          "internalType": "uint16",
          "name": "",
          "type": "uint16"
        }
      ],
      "stateMutability": "view",
      "type": "function"
    },
    {
      "inputs": [
        {
          "internalType": "uint256",
          "name": "_tokenId",
          "type": "uint256"
        }
      ],
      "name": "getRoyaltyInfoForToken",
      "outputs": [
        {
          "internalType": "address",
          "name": "",
          "type": "address"
        },
        {
          "internalType": "uint16",
          "name": "",
          "type": "uint16"
        }
      ],
      "stateMutability": "view",
      "type": "function"
    },
    {
      "inputs": [
        {
          "internalType": "string",
          "name": "_name",
          "type": "string"
        },
        {
          "internalType": "string",
          "name": "_symbol",
          "type": "string"
        },
        {
          "internalType": "address",
          "name": "_royaltyRecipient",
          "type": "address"
        },
        {
          "internalType": "uint16",
          "name": "_royaltyBps",
          "type": "uint16"
        }
      ],
      "name": "initialize",
      "outputs": [],
      "stateMutability": "nonpayable",
      "type": "function"
    },
    {
      "inputs": [
        {
          "internalType": "address",
          "name": "owner",
          "type": "address"
        },
        {
          "internalType": "address",
          "name": "operator",
          "type": "address"
        }
      ],
      "name": "isApprovedForAll",
      "outputs": [
        {
          "internalType": "bool",
          "name": "",
          "type": "bool"
        }
      ],
      "stateMutability": "view",
      "type": "function"
    },
    {
      "inputs": [
        {
          "internalType": "address",
          "name": "_operator",
          "type": "address"
        },
        {
          "internalType": "uint256",
          "name": "_tokenId",
          "type": "uint256"
        }
      ],
      "name": "isApprovedOrOwner",
      "outputs": [
        {
          "internalType": "bool",
          "name": "isApprovedOrOwnerOf",
          "type": "bool"
        }
      ],
      "stateMutability": "view",
      "type": "function"
    },
    {
      "inputs": [
        {
          "internalType": "address",
          "name": "_to",
          "type": "address"
        },
        {
          "internalType": "string",
          "name": "_tokenURI",
          "type": "string"
        }
      ],
      "name": "mintTo",
      "outputs": [],
      "stateMutability": "nonpayable",
      "type": "function"
    },
    {
      "inputs": [
        {
          "internalType": "bytes[]",
          "name": "data",
          "type": "bytes[]"
        }
      ],
      "name": "multicall",
      "outputs": [
        {
          "internalType": "bytes[]",
          "name": "results",
          "type": "bytes[]"
        }
      ],
      "stateMutability": "nonpayable",
      "type": "function"
    },
    {
      "inputs": [],
      "name": "name",
      "outputs": [
        {
          "internalType": "string",
          "name": "",
          "type": "string"
        }
      ],
      "stateMutability": "view",
      "type": "function"
    },
    {
      "inputs": [],
      "name": "nextTokenIdToMint",
      "outputs": [
        {
          "internalType": "uint256",
          "name": "",
          "type": "uint256"
        }
      ],
      "stateMutability": "view",
      "type": "function"
    },
    {
      "inputs": [],
      "name": "owner",
      "outputs": [
        {
          "internalType": "address",
          "name": "",
          "type": "address"
        }
      ],
      "stateMutability": "view",
      "type": "function"
    },
    {
      "inputs": [
        {
          "internalType": "uint256",
          "name": "tokenId",
          "type": "uint256"
        }
      ],
      "name": "ownerOf",
      "outputs": [
        {
          "internalType": "address",
          "name": "",
          "type": "address"
        }
      ],
      "stateMutability": "view",
      "type": "function"
    },
    {
      "inputs": [
        {
          "internalType": "uint256",
          "name": "tokenId",
          "type": "uint256"
        },
        {
          "internalType": "uint256",
          "name": "salePrice",
          "type": "uint256"
        }
      ],
      "name": "royaltyInfo",
      "outputs": [
        {
          "internalType": "address",
          "name": "receiver",
          "type": "address"
        },
        {
          "internalType": "uint256",
          "name": "royaltyAmount",
          "type": "uint256"
        }
      ],
      "stateMutability": "view",
      "type": "function"
    },
    {
      "inputs": [
        {
          "internalType": "address",
          "name": "from",
          "type": "address"
        },
        {
          "internalType": "address",
          "name": "to",
          "type": "address"
        },
        {
          "internalType": "uint256",
          "name": "tokenId",
          "type": "uint256"
        }
      ],
      "name": "safeTransferFrom",
      "outputs": [],
      "stateMutability": "payable",
      "type": "function"
    },
    {
      "inputs": [
        {
          "internalType": "address",
          "name": "from",
          "type": "address"
        },
        {
          "internalType": "address",
          "name": "to",
          "type": "address"
        },
        {
          "internalType": "uint256",
          "name": "tokenId",
          "type": "uint256"
        },
        {
          "internalType": "bytes",
          "name": "data",
          "type": "bytes"
        }
      ],
      "name": "safeTransferFrom",
      "outputs": [],
      "stateMutability": "payable",
      "type": "function"
    },
    {
      "inputs": [
        {
          "internalType": "address",
          "name": "operator",
          "type": "address"
        },
        {
          "internalType": "bool",
          "name": "approved",
          "type": "bool"
        }
      ],
      "name": "setApprovalForAll",
      "outputs": [],
      "stateMutability": "nonpayable",
      "type": "function"
    },
    {
      "inputs": [
        {
          "internalType": "string",
          "name": "_uri",
          "type": "string"
        }
      ],
      "name": "setContractURI",
      "outputs": [],
      "stateMutability": "nonpayable",
      "type": "function"
    },
    {
      "inputs": [
        {
          "internalType": "address",
          "name": "_royaltyRecipient",
          "type": "address"
        },
        {
          "internalType": "uint256",
          "name": "_royaltyBps",
          "type": "uint256"
        }
      ],
      "name": "setDefaultRoyaltyInfo",
      "outputs": [],
      "stateMutability": "nonpayable",
      "type": "function"
    },
    {
      "inputs": [
        {
          "internalType": "uint256",
          "name": "_tokenId",
          "type": "uint256"
        },
        {
          "internalType": "address",
          "name": "_recipient",
          "type": "address"
        },
        {
          "internalType": "uint256",
          "name": "_bps",
          "type": "uint256"
        }
      ],
      "name": "setRoyaltyInfoForToken",
      "outputs": [],
      "stateMutability": "nonpayable",
      "type": "function"
    },
    {
      "inputs": [
        {
          "internalType": "bytes4",
          "name": "interfaceId",
          "type": "bytes4"
        }
      ],
      "name": "supportsInterface",
      "outputs": [
        {
          "internalType": "bool",
          "name": "",
          "type": "bool"
        }
      ],
      "stateMutability": "view",
      "type": "function"
    },
    {
      "inputs": [],
      "name": "symbol",
      "outputs": [
        {
          "internalType": "string",
          "name": "",
          "type": "string"
        }
      ],
      "stateMutability": "view",
      "type": "function"
    },
    {
      "inputs": [
        {
          "internalType": "uint256",
          "name": "_tokenId",
          "type": "uint256"
        }
      ],
      "name": "tokenURI",
      "outputs": [
        {
          "internalType": "string",
          "name": "",
          "type": "string"
        }
      ],
      "stateMutability": "view",
      "type": "function"
    },
    {
      "inputs": [],
      "name": "totalSupply",
      "outputs": [
        {
          "internalType": "uint256",
          "name": "",
          "type": "uint256"
        }
      ],
      "stateMutability": "view",
      "type": "function"
    },
    {
      "inputs": [
        {
          "internalType": "address",
          "name": "from",
          "type": "address"
        },
        {
          "internalType": "address",
          "name": "to",
          "type": "address"
        },
        {
          "internalType": "uint256",
          "name": "tokenId",
          "type": "uint256"
        }
      ],
      "name": "transferFrom",
      "outputs": [],
      "stateMutability": "payable",
      "type": "function"
    },
    {
      "inputs": [
        {
          "internalType": "address",
          "name": "account",
          "type": "address"
        }
      ],
      "name": "transferOwnership",
      "outputs": [],
      "stateMutability": "nonpayable",
      "type": "function"
    }
  ],
  "bytecode": {
    "object": "0x608060405234801561001057600080fd5b50612e68806100206000396000f3fe6080604052600436106101f85760003560e01c8063600dd5ea1161010d578063a22cb465116100a0578063c87b56dd1161006f578063c87b56dd146105d7578063d28ce35e146105f7578063e8a3d48514610617578063e985e9c51461062c578063f2fde38b1461064c57600080fd5b8063a22cb4651461053f578063ac9650d81461055f578063b24f2d391461058c578063b88d4fde146105c457600080fd5b80638da5cb5b116100dc5780638da5cb5b146104d5578063938e3d7b146104ea57806395d89b411461050a5780639bcf7a151461051f57600080fd5b8063600dd5ea146104605780636352211e1461048057806363b45e2d146104a057806370a08231146104b557600080fd5b80632a55205a11610190578063430c20811161015f578063430c20811461039e5780634cc157df146103be5780634f558e79146104005780635003c7c3146104205780635881bfc11461044057600080fd5b80632a55205a146103175780633b1475a71461035657806342842e0e1461036b57806342966c681461037e57600080fd5b8063095ea7b3116101cc578063095ea7b3146102ae57806318160ddd146102c157806323b872dd146102e45780632419f51b146102f757600080fd5b806275a317146101fd57806301ffc9a71461021f57806306fdde0314610254578063081812fc14610276575b600080fd5b34801561020957600080fd5b5061021d610218366004612552565b61066c565b005b34801561022b57600080fd5b5061023f61023a3660046125b6565b6106df565b60405190151581526020015b60405180910390f35b34801561026057600080fd5b50610269610722565b60405161024b9190612623565b34801561028257600080fd5b50610296610291366004612636565b6107bd565b6040516001600160a01b03909116815260200161024b565b61021d6102bc36600461264f565b61080a565b3480156102cd57600080fd5b506102d6610823565b60405190815260200161024b565b61021d6102f2366004612679565b610842565b34801561030357600080fd5b506102d6610312366004612636565b61086d565b34801561032357600080fd5b506103376103323660046126b5565b610878565b604080516001600160a01b03909316835260208301919091520161024b565b34801561036257600080fd5b506102d66108b5565b61021d610379366004612679565b6108c4565b34801561038a57600080fd5b5061021d610399366004612636565b6108e9565b3480156103aa57600080fd5b5061023f6103b936600461264f565b6108f7565b3480156103ca57600080fd5b506103de6103d9366004612636565b610956565b604080516001600160a01b03909316835261ffff90911660208301520161024b565b34801561040c57600080fd5b5061023f61041b366004612636565b61096b565b34801561042c57600080fd5b5061021d61043b3660046126d7565b610976565b34801561044c57600080fd5b5061021d61045b36600461272e565b6109e2565b34801561046c57600080fd5b5061021d61047b36600461264f565b610b89565b34801561048c57600080fd5b5061029661049b366004612636565b610bb7565b3480156104ac57600080fd5b506102d6610bc2565b3480156104c157600080fd5b506102d66104d03660046127bc565b610bcc565b3480156104e157600080fd5b50610296610c35565b3480156104f657600080fd5b5061021d6105053660046127d7565b610c3f565b34801561051657600080fd5b50610269610c6c565b34801561052b57600080fd5b5061021d61053a36600461280c565b610c84565b34801561054b57600080fd5b5061021d61055a36600461283f565b610cb3565b34801561056b57600080fd5b5061057f61057a366004612876565b610cc7565b60405161024b91906128eb565b34801561059857600080fd5b50600080516020612db3833981519152546001600160a01b03811690600160a01b900461ffff166103de565b61021d6105d236600461294d565b610de2565b3480156105e357600080fd5b506102696105f2366004612636565b610e08565b34801561060357600080fd5b506102d6610612366004612636565b610e65565b34801561062357600080fd5b50610269610ee0565b34801561063857600080fd5b5061023f6106473660046129c9565b610eea565b34801561065857600080fd5b5061021d6106673660046127bc565b610f27565b610674610f69565b6106bf5760405162461bcd60e51b81526020600482015260176024820152762737ba1030baba3437b934bd32b2103a379036b4b73a1760491b60448201526064015b60405180910390fd5b6106d06106ca610f8c565b82610f9c565b6106db826001611030565b5050565b6001600160e01b0319811660009081527ffc606c433378e3a7e0a6a531deac289b66caa1b4aa8554fd4ab2c6f1570f92d8602052604081205460ff165b92915050565b606061072c61104a565b600201805461073a906129fc565b80601f0160208091040260200160405190810160405280929190818152602001828054610766906129fc565b80156107b35780601f10610788576101008083540402835291602001916107b3565b820191906000526020600020905b81548152906001019060200180831161079657829003601f168201915b5050505050905090565b60006107c88261106e565b6107e5576040516333d1c03960e21b815260040160405180910390fd5b6107ed61104a565b60009283526006016020525060409020546001600160a01b031690565b81610814816110aa565b61081e8383611163565b505050565b60008061082e61104a565b6001015461083a61104a565b540303919050565b826001600160a01b038116331461085c5761085c336110aa565b61086784848461116f565b50505050565b600061071c82610e65565b60008060008061088786611354565b90945084925061ffff1690506127106108a08287612a4c565b6108aa9190612a81565b925050509250929050565b60006108bf610f8c565b905090565b826001600160a01b03811633146108de576108de336110aa565b6108678484846113f5565b6108f4816001611410565b50565b60008061090383610bb7565b9050806001600160a01b0316846001600160a01b0316148061092a575061092a8185610eea565b8061094e5750836001600160a01b0316610943846107bd565b6001600160a01b0316145b949350505050565b60008061096283611354565b91509150915091565b600061071c8261106e565b61097e610f69565b6109c45760405162461bcd60e51b81526020600482015260176024820152762737ba1030baba3437b934bd32b2103a379036b4b73a1760491b60448201526064016106b6565b6109d66109cf610f8c565b838361157f565b505061081e8383611030565b600080516020612e1383398151915254610100900460ff16610a1757600080516020612e138339815191525460ff1615610a1b565b303b155b610a8d5760405162461bcd60e51b815260206004820152603760248201527f455243373231415f5f496e697469616c697a61626c653a20636f6e747261637460448201527f20697320616c726561647920696e697469616c697a656400000000000000000060648201526084016106b6565b600080516020612e1383398151915254610100900460ff16158015610ac957600080516020612e13833981519152805461ffff19166101011790555b610ad38585611610565b610adc3361164e565b610aea838361ffff166116c8565b610b09733cc6cdda760b79bafa08df41ecfa224f810dceb66001611781565b610b1b6301ffc9a760e01b60016118f9565b610b2d6380ac58cd60e01b60016118f9565b610b3f635b5e139f60e01b60016118f9565b610b5163152a902d60e11b60016118f9565b610b63633d96f4ff60e11b60016118f9565b8015610b8257600080516020612e13833981519152805461ff00191690555b5050505050565b610b91610f69565b610bad5760405162461bcd60e51b81526004016106b690612a95565b6106db82826116c8565b600061071c8261196f565b60006108bf611a14565b60006001600160a01b038216610bf5576040516323d3ad8160e21b815260040160405180910390fd5b67ffffffffffffffff610c0661104a565b6005016000846001600160a01b03166001600160a01b0316815260200190815260200160002054169050919050565b60006108bf611a2a565b610c47610f69565b610c635760405162461bcd60e51b81526004016106b690612a95565b6108f481611a58565b6060610c7661104a565b600301805461073a906129fc565b610c8c610f69565b610ca85760405162461bcd60e51b81526004016106b690612a95565b61081e838383611b59565b81610cbd816110aa565b61081e8383611c5c565b60608167ffffffffffffffff811115610ce257610ce261249f565b604051908082528060200260200182016040528015610d1557816020015b6060815260200190600190039081610d005790505b50905060005b82811015610ddb5760008030868685818110610d3957610d39612abd565b9050602002810190610d4b9190612ad3565b604051610d59929190612b21565b600060405180830381855af49150503d8060008114610d94576040519150601f19603f3d011682016040523d82523d6000602084013e610d99565b606091505b50915091508115610dc75780848481518110610db757610db7612abd565b6020026020010181905250610dd1565b3d6000803e3d6000fd5b5050600101610d1b565b5092915050565b836001600160a01b0381163314610dfc57610dfc336110aa565b610b8285858585611cd9565b60606000610e1583611d1d565b805190915015610e255792915050565b6000610e3084611dde565b905080610e3c85611f88565b604051602001610e4d929190612b31565b60405160208183030381529060405292505050919050565b6000610e6f611a14565b8210610ead5760405162461bcd60e51b815260206004820152600d60248201526c092dcecc2d8d2c840d2dcc8caf609b1b60448201526064016106b6565b600080516020612dd3833981519152805483908110610ece57610ece612abd565b90600052602060002001549050919050565b60606108bf612089565b6000610ef461104a565b6001600160a01b039384166000908152600791909101602090815260408083209490951682529290925250205460ff1690565b610f2f611a2a565b6001600160a01b0316336001600160a01b031614610f6057604051632f7a8ee160e01b815260040160405180910390fd5b6108f4816120b7565b6000610f73611a2a565b6001600160a01b0316336001600160a01b031614905090565b6000610f9661104a565b54919050565b60008281527fd99b3a829832048f6be28ec488f80e0f5f986977f6b9d7f4b1ab0ac1e524c9ee602081905260409091208054610fd7906129fc565b1590506110185760405162461bcd60e51b815260206004820152600f60248201526e15549248185b1c9958591e481cd95d608a1b60448201526064016106b6565b60008381526020829052604090206108678382612ba6565b6106db8282604051806020016040528060008152506120c0565b7f2569078dfb4b0305704d3008e7403993ae9601b85f7ae5e742de3de8f8011c4090565b600061107861104a565b548210801561071c5750600160e01b61108f61104a565b60008481526004919091016020526040902054161592915050565b6daaeb6d7670e522a718067333cd4e3b156108f457604051633185c44d60e21b81523060048201526001600160a01b03821660248201526daaeb6d7670e522a718067333cd4e9063c617113490604401602060405180830381865afa158015611117573d6000803e3d6000fd5b505050506040513d601f19601f8201168201806040525081019061113b9190612c66565b6108f457604051633b79c77360e21b81526001600160a01b03821660048201526024016106b6565b6106db82826001612136565b600061117a8261196f565b9050836001600160a01b0316816001600160a01b0316146111ad5760405162a1148160e81b815260040160405180910390fd5b6000806111b9846121eb565b915091506111de81876111c93390565b6001600160a01b039081169116811491141790565b611209576111ec8633610eea565b61120957604051632ce44b5f60e11b815260040160405180910390fd5b6001600160a01b03851661123057604051633a954ecd60e21b815260040160405180910390fd5b801561123b57600082555b61124361104a565b6001600160a01b038716600090815260059190910160205260409020805460001901905561126f61104a565b6001600160a01b03861660008181526005929092016020526040909120805460010190554260a01b17600160e11b176112a661104a565b60008681526004919091016020526040812091909155600160e11b8416900361131c57600184016112d561104a565b60008281526004919091016020526040812054900361131a576112f661104a565b54811461131a578361130661104a565b600083815260049190910160205260409020555b505b83856001600160a01b0316876001600160a01b0316600080516020612df383398151915260405160405180910390a45b505050505050565b60008181527f20211f9d4ae667a819d1f429099f8aeebe331e6fa4cf5eff02d28f6060b7d6e8602090815260408083208151808301909252546001600160a01b038116808352600160a01b90910461ffff16928201929092528291600080516020612db38339815191529190156113d157805160208201516113ea565b81546001600160a01b03811690600160a01b900461ffff165b935093505050915091565b61081e83838360405180602001604052806000815250610de2565b600061141b8361196f565b90508060008061142a866121eb565b91509150841561146a5761143f8184336111c9565b61146a5761144d8333610eea565b61146a57604051632ce44b5f60e11b815260040160405180910390fd5b801561147557600082555b6fffffffffffffffffffffffffffffffff61148e61104a565b6001600160a01b038516600081815260059290920160205260409091208054929092019091554260a01b17600360e01b176114c761104a565b60008881526004919091016020526040812091909155600160e11b8516900361153d57600186016114f661104a565b60008281526004919091016020526040812054900361153b5761151761104a565b54811461153b578461152761104a565b600083815260049190910160205260409020555b505b60405186906000906001600160a01b03861690600080516020612df3833981519152908390a461156b61104a565b600190810180549091019055505050505050565b60008061158c8486612c83565b600080516020612dd383398151915280546001810182557f1ced185bbf9482d38b4865a74eda9abbaa19023b28195b15e6e70dbf9d8ee7e70182905560008281527f09b74f8b9562e7c2d8089de59107ad15ceff2ad41fceff9c15cfd0131840330b60205260409020919350839250906116068582612ba6565b5050935093915050565b600080516020612e1383398151915254610100900460ff166116445760405162461bcd60e51b81526004016106b690612c96565b6106db8282612213565b7f8a22373512790c48b83a1fe2efdd2888d4a917bcdc24d0adf63e60f67168046080546040516001600160a01b038481169216907f8be0079c531659141344cd1fd0a4f28419497f9722a3daafe3b4186f6b6457e090600090a380546001600160a01b0319166001600160a01b0392909216919091179055565b61271081111561170c5760405162461bcd60e51b815260206004820152600f60248201526e45786365656473206d61782062707360881b60448201526064016106b6565b6000600080516020612db383398151915280546001600160a01b0385166001600160b01b03199091168117600160a01b61ffff861602178255604051848152919250907f90d7ec04bcb8978719414f82e52e4cb651db41d0e6f8cea6118c2191e6183adb9060200160405180910390a2505050565b6daaeb6d7670e522a718067333cd4e3b156106db5760405163c3c5a54760e01b81523060048201526daaeb6d7670e522a718067333cd4e9063c3c5a547906024016020604051808303816000875af11580156117e1573d6000803e3d6000fd5b505050506040513d601f19601f820116820180604052508101906118059190612c66565b6106db57801561187957604051633e9f1edf60e11b81523060048201526001600160a01b03831660248201526daaeb6d7670e522a718067333cd4e90637d3e3dbe906044015b600060405180830381600087803b15801561186557600080fd5b505af115801561134c573d6000803e3d6000fd5b6001600160a01b038216156118c85760405163a0af290360e01b81523060048201526001600160a01b03831660248201526daaeb6d7670e522a718067333cd4e9063a0af29039060440161184b565b604051632210724360e11b81523060048201526daaeb6d7670e522a718067333cd4e90634420e4869060240161184b565b6001600160e01b031980831690036119245760405163b0a19dd560e01b815260040160405180910390fd5b6001600160e01b03199190911660009081527ffc606c433378e3a7e0a6a531deac289b66caa1b4aa8554fd4ab2c6f1570f92d860205260409020805460ff1916911515919091179055565b600061197961104a565b600083815260049190910160205260408120549150600160e01b821690036119fb57806000036119f6576119ab61104a565b5482106119cb57604051636f96cda160e11b815260040160405180910390fd5b6119d361104a565b6000199092016000818152600493909301602052604090922054905080156119cb575b919050565b604051636f96cda160e11b815260040160405180910390fd5b6000600080516020612dd3833981519152610f96565b7f8a22373512790c48b83a1fe2efdd2888d4a917bcdc24d0adf63e60f671680460546001600160a01b031690565b7f377d51b8f3c321ac06c08d08eb5924030a0062cf68630d0ace73345d5f49f6fd80546000908290611a89906129fc565b80601f0160208091040260200160405190810160405280929190818152602001828054611ab5906129fc565b8015611b025780601f10611ad757610100808354040283529160200191611b02565b820191906000526020600020905b815481529060010190602001808311611ae557829003601f168201915b5050505050905082826000019081611b1a9190612ba6565b507fc9c7c3fe08b88b4df9d4d47ef47d2c43d55c025a0ba88ca442580ed9e7348a168184604051611b4c929190612cea565b60405180910390a1505050565b612710811115611b9d5760405162461bcd60e51b815260206004820152600f60248201526e45786365656473206d61782062707360881b60448201526064016106b6565b6040805180820182526001600160a01b0384811680835261ffff858116602080860191825260008a81527f20211f9d4ae667a819d1f429099f8aeebe331e6fa4cf5eff02d28f6060b7d6e88252879020955186549251909316600160a01b026001600160b01b031990921692909416919091171790925582518481529251600080516020612db38339815191529387927f7365cf4122f072a3365c20d54eff9b38d73c096c28e1892ec8f5b0e403a0f12d92918290030190a350505050565b80611c6561104a565b336000818152600792909201602090815260408084206001600160a01b03881680865290835293819020805460ff19169515159590951790945592518415158152919290917f17307eab39ab6107e8899845ad3d59bd9653f200f220920489ca2b5937696c31910160405180910390a35050565b611ce4848484610842565b6001600160a01b0383163b1561086757611d0084848484612286565b610867576040516368d2bf6b60e11b815260040160405180910390fd5b60008181527fd99b3a829832048f6be28ec488f80e0f5f986977f6b9d7f4b1ab0ac1e524c9ee60205260409020805460609190611d59906129fc565b80601f0160208091040260200160405190810160405280929190818152602001828054611d85906129fc565b8015611dd25780601f10611da757610100808354040283529160200191611dd2565b820191906000526020600020905b815481529060010190602001808311611db557829003601f168201915b50505050509050919050565b6060600080516020612dd38339815191526000611df9611a14565b825460408051602080840282018101909252828152929350600092918591830182828015611e4657602002820191906000526020600020905b815481526020019060010190808311611e32575b5050505050905060005b82811015611f4d57818181518110611e6a57611e6a612abd565b6020026020010151861015611f3b57836001016000838381518110611e9157611e91612abd565b602002602001015181526020019081526020016000208054611eb2906129fc565b80601f0160208091040260200160405190810160405280929190818152602001828054611ede906129fc565b8015611f2b5780601f10611f0057610100808354040283529160200191611f2b565b820191906000526020600020905b815481529060010190602001808311611f0e57829003601f168201915b5050505050945050505050919050565b611f46600182612c83565b9050611e50565b5060405162461bcd60e51b815260206004820152600f60248201526e125b9d985b1a59081d1bdad95b9259608a1b60448201526064016106b6565b606081600003611faf5750506040805180820190915260018152600360fc1b602082015290565b8160005b8115611fd95780611fc381612d18565b9150611fd29050600a83612a81565b9150611fb3565b60008167ffffffffffffffff811115611ff457611ff461249f565b6040519080825280601f01601f19166020018201604052801561201e576020820181803683370190505b5090505b841561094e57612033600183612d31565b9150612040600a86612d44565b61204b906030612c83565b60f81b81838151811061206057612060612abd565b60200101906001600160f81b031916908160001a905350612082600a86612a81565b9450612022565b60607f377d51b8f3c321ac06c08d08eb5924030a0062cf68630d0ace73345d5f49f6fd805461073a906129fc565b6108f48161164e565b6120ca8383612371565b6001600160a01b0383163b1561081e5760006120e461104a565b5490508281035b6120fe6000868380600101945086612286565b61211b576040516368d2bf6b60e11b815260040160405180910390fd5b8181106120eb578161212b61104a565b5414610b8257600080fd5b600061214183610bb7565b9050811561218057336001600160a01b03821614612180576121638133610eea565b612180576040516367d9dca160e11b815260040160405180910390fd5b8361218961104a565b6000858152600691909101602052604080822080546001600160a01b0319166001600160a01b0394851617905551859287811692908516917f8c5be1e5ebec7d5bd14f71427d1e84f3dd0314c0f7b2291e5b200ac8c7c3b9259190a450505050565b60008060006121f861104a565b60009485526006016020525050604090912080549092909150565b600080516020612e1383398151915254610100900460ff166122475760405162461bcd60e51b81526004016106b690612c96565b8161225061104a565b6002019061225e9082612ba6565b508061226861104a565b600301906122769082612ba6565b50600061228161104a565b555050565b604051630a85bd0160e11b81526000906001600160a01b0385169063150b7a02906122bb903390899088908890600401612d58565b6020604051808303816000875af19250505080156122f6575060408051601f3d908101601f191682019092526122f391810190612d95565b60015b612354573d808015612324576040519150601f19603f3d011682016040523d82523d6000602084013e612329565b606091505b50805160000361234c576040516368d2bf6b60e11b815260040160405180910390fd5b805181602001fd5b6001600160e01b031916630a85bd0160e11b149050949350505050565b600061237b61104a565b54905060008290036123a05760405163b562e8dd60e01b815260040160405180910390fd5b6801000000000000000182026123b461104a565b6001600160a01b038516600081815260059290920160205260409091208054929092019091554260a01b6001841460e11b17176123ef61104a565b600083815260049190910160205260408120919091556001600160a01b038416908383019083908390600080516020612df38339815191528180a4600183015b8181146124555780836000600080516020612df3833981519152600080a460010161242f565b508160000361247657604051622e076360e81b815260040160405180910390fd5b8061247f61104a565b555061081e9050565b80356001600160a01b03811681146119f657600080fd5b634e487b7160e01b600052604160045260246000fd5b600067ffffffffffffffff808411156124d0576124d061249f565b604051601f8501601f19908116603f011681019082821181831017156124f8576124f861249f565b8160405280935085815286868601111561251157600080fd5b858560208301376000602087830101525050509392505050565b600082601f83011261253c57600080fd5b61254b838335602085016124b5565b9392505050565b6000806040838503121561256557600080fd5b61256e83612488565b9150602083013567ffffffffffffffff81111561258a57600080fd5b6125968582860161252b565b9150509250929050565b6001600160e01b0319811681146108f457600080fd5b6000602082840312156125c857600080fd5b813561254b816125a0565b60005b838110156125ee5781810151838201526020016125d6565b50506000910152565b6000815180845261260f8160208601602086016125d3565b601f01601f19169290920160200192915050565b60208152600061254b60208301846125f7565b60006020828403121561264857600080fd5b5035919050565b6000806040838503121561266257600080fd5b61266b83612488565b946020939093013593505050565b60008060006060848603121561268e57600080fd5b61269784612488565b92506126a560208501612488565b9150604084013590509250925092565b600080604083850312156126c857600080fd5b50508035926020909101359150565b6000806000606084860312156126ec57600080fd5b6126f584612488565b925060208401359150604084013567ffffffffffffffff81111561271857600080fd5b6127248682870161252b565b9150509250925092565b6000806000806080858703121561274457600080fd5b843567ffffffffffffffff8082111561275c57600080fd5b6127688883890161252b565b9550602087013591508082111561277e57600080fd5b5061278b8782880161252b565b93505061279a60408601612488565b9150606085013561ffff811681146127b157600080fd5b939692955090935050565b6000602082840312156127ce57600080fd5b61254b82612488565b6000602082840312156127e957600080fd5b813567ffffffffffffffff81111561280057600080fd5b61094e8482850161252b565b60008060006060848603121561282157600080fd5b833592506126a560208501612488565b80151581146108f457600080fd5b6000806040838503121561285257600080fd5b61285b83612488565b9150602083013561286b81612831565b809150509250929050565b6000806020838503121561288957600080fd5b823567ffffffffffffffff808211156128a157600080fd5b818501915085601f8301126128b557600080fd5b8135818111156128c457600080fd5b8660208260051b85010111156128d957600080fd5b60209290920196919550909350505050565b6000602080830181845280855180835260408601915060408160051b870101925083870160005b8281101561294057603f1988860301845261292e8583516125f7565b94509285019290850190600101612912565b5092979650505050505050565b6000806000806080858703121561296357600080fd5b61296c85612488565b935061297a60208601612488565b925060408501359150606085013567ffffffffffffffff81111561299d57600080fd5b8501601f810187136129ae57600080fd5b6129bd878235602084016124b5565b91505092959194509250565b600080604083850312156129dc57600080fd5b6129e583612488565b91506129f360208401612488565b90509250929050565b600181811c90821680612a1057607f821691505b602082108103612a3057634e487b7160e01b600052602260045260246000fd5b50919050565b634e487b7160e01b600052601160045260246000fd5b6000816000190483118215151615612a6657612a66612a36565b500290565b634e487b7160e01b600052601260045260246000fd5b600082612a9057612a90612a6b565b500490565b6020808252600e908201526d139bdd08185d5d1a1bdc9a5e995960921b604082015260600190565b634e487b7160e01b600052603260045260246000fd5b6000808335601e19843603018112612aea57600080fd5b83018035915067ffffffffffffffff821115612b0557600080fd5b602001915036819003821315612b1a57600080fd5b9250929050565b8183823760009101908152919050565b60008351612b438184602088016125d3565b835190830190612b578183602088016125d3565b01949350505050565b601f82111561081e57600081815260208120601f850160051c81016020861015612b875750805b601f850160051c820191505b8181101561134c57828155600101612b93565b815167ffffffffffffffff811115612bc057612bc061249f565b612bd481612bce84546129fc565b84612b60565b602080601f831160018114612c095760008415612bf15750858301515b600019600386901b1c1916600185901b17855561134c565b600085815260208120601f198616915b82811015612c3857888601518255948401946001909101908401612c19565b5085821015612c565787850151600019600388901b60f8161c191681555b5050505050600190811b01905550565b600060208284031215612c7857600080fd5b815161254b81612831565b8082018082111561071c5761071c612a36565b60208082526034908201527f455243373231415f5f496e697469616c697a61626c653a20636f6e7472616374604082015273206973206e6f7420696e697469616c697a696e6760601b606082015260800190565b604081526000612cfd60408301856125f7565b8281036020840152612d0f81856125f7565b95945050505050565b600060018201612d2a57612d2a612a36565b5060010190565b8181038181111561071c5761071c612a36565b600082612d5357612d53612a6b565b500690565b6001600160a01b0385811682528416602082015260408101839052608060608201819052600090612d8b908301846125f7565b9695505050505050565b600060208284031215612da757600080fd5b815161254b816125a056fe20211f9d4ae667a819d1f429099f8aeebe331e6fa4cf5eff02d28f6060b7d6e709b74f8b9562e7c2d8089de59107ad15ceff2ad41fceff9c15cfd0131840330addf252ad1be2c89b69c2b068fc378daa952ba7f163c4a11628f55a4df523b3efee151c8401928dc223602bb187aff91b9a56c7cae5476ef1b3287b085a16c85fa2646970667358221220b1b15cdfd91e849f2dfb1f0a11a045fecfa76b740ddd56b4e5b0c0029b7cc18d64736f6c63430008100033",
    "linkReferences": {}
  },
  "methodIdentifiers": {
    "_getBatchIdAtIndex(uint256)": "d28ce35e",
    "approve(address,uint256)": "095ea7b3",
    "balanceOf(address)": "70a08231",
    "batchMintTo(address,uint256,string)": "5003c7c3",
    "burn(uint256)": "42966c68",
    "contractURI()": "e8a3d485",
    "exists(uint256)": "4f558e79",
    "getApproved(uint256)": "081812fc",
    "getBaseURICount()": "63b45e2d",
    "getBatchIdAtIndex(uint256)": "2419f51b",
    "getDefaultRoyaltyInfo()": "b24f2d39",
    "getRoyaltyInfoForToken(uint256)": "4cc157df",
    "initialize(string,string,address,uint16)": "5881bfc1",
    "isApprovedForAll(address,address)": "e985e9c5",
    "isApprovedOrOwner(address,uint256)": "430c2081",
    "mintTo(address,string)": "0075a317",
    "multicall(bytes[])": "ac9650d8",
    "name()": "06fdde03",
    "nextTokenIdToMint()": "3b1475a7",
    "owner()": "8da5cb5b",
    "ownerOf(uint256)": "6352211e",
    "royaltyInfo(uint256,uint256)": "2a55205a",
    "safeTransferFrom(address,address,uint256)": "42842e0e",
    "safeTransferFrom(address,address,uint256,bytes)": "b88d4fde",
    "setApprovalForAll(address,bool)": "a22cb465",
    "setContractURI(string)": "938e3d7b",
    "setDefaultRoyaltyInfo(address,uint256)": "600dd5ea",
    "setRoyaltyInfoForToken(uint256,address,uint256)": "9bcf7a15",
    "supportsInterface(bytes4)": "01ffc9a7",
    "symbol()": "95d89b41",
    "tokenURI(uint256)": "c87b56dd",
    "totalSupply()": "18160ddd",
    "transferFrom(address,address,uint256)": "23b872dd",
    "transferOwnership(address)": "f2fde38b"
  },
  "id": 92
}