{
  "abi": [
    {
      "inputs": [],
      "name": "ApprovalCallerNotOwnerNorApproved",
      "type": "error"
    },
    {
      "inputs": [],
      "name": "ApprovalQueryForNonexistentToken",
      "type": "error"
    },
    {
      "inputs": [],
      "name": "BalanceQueryForZeroAddress",
      "type": "error"
    },
    {
      "inputs": [],
      "name": "ERC165Base__InvalidInterfaceId",
      "type": "error"
    },
    {
      "inputs": [],
      "name": "MintERC2309QuantityExceedsLimit",
      "type": "error"
    },
    {
      "inputs": [],
      "name": "MintToZeroAddress",
      "type": "error"
    },
    {
      "inputs": [],
      "name": "MintZeroQuantity",
      "type": "error"
    },
    {
      "inputs": [
        {
          "internalType": "address",
          "name": "operator",
          "type": "address"
        }
      ],
      "name": "OperatorNotAllowed",
      "type": "error"
    },
    {
      "inputs": [],
      "name": "Ownable__NotOwner",
      "type": "error"
    },
    {
      "inputs": [],
      "name": "Ownable__NotTransitiveOwner",
      "type": "error"
    },
    {
      "inputs": [],
      "name": "OwnerQueryForNonexistentToken",
      "type": "error"
    },
    {
      "inputs": [],
      "name": "OwnershipNotInitializedForExtraData",
      "type": "error"
    },
    {
      "inputs": [],
      "name": "TransferCallerNotOwnerNorApproved",
      "type": "error"
    },
    {
      "inputs": [],
      "name": "TransferFromIncorrectOwner",
      "type": "error"
    },
    {
      "inputs": [],
      "name": "TransferToNonERC721ReceiverImplementer",
      "type": "error"
    },
    {
      "inputs": [],
      "name": "TransferToZeroAddress",
      "type": "error"
    },
    {
      "inputs": [],
      "name": "URIQueryForNonexistentToken",
      "type": "error"
    },
    {
      "anonymous": false,
      "inputs": [
        {
          "indexed": true,
          "internalType": "address",
          "name": "owner",
          "type": "address"
        },
        {
          "indexed": true,
          "internalType": "address",
          "name": "approved",
          "type": "address"
        },
        {
          "indexed": true,
          "internalType": "uint256",
          "name": "tokenId",
          "type": "uint256"
        }
      ],
      "name": "Approval",
      "type": "event"
    },
    {
      "anonymous": false,
      "inputs": [
        {
          "indexed": true,
          "internalType": "address",
          "name": "owner",
          "type": "address"
        },
        {
          "indexed": true,
          "internalType": "address",
          "name": "operator",
          "type": "address"
        },
        {
          "indexed": false,
          "internalType": "bool",
          "name": "approved",
          "type": "bool"
        }
      ],
      "name": "ApprovalForAll",
      "type": "event"
    },
    {
      "anonymous": false,
      "inputs": [
        {
          "indexed": false,
          "internalType": "address",
          "name": "to",
          "type": "address"
        },
        {
          "indexed": false,
          "internalType": "uint256",
          "name": "quantity",
          "type": "uint256"
        },
        {
          "indexed": false,
          "internalType": "string",
          "name": "baseURI",
          "type": "string"
        }
      ],
      "name": "BatchMinted",
      "type": "event"
    },
    {
      "anonymous": false,
      "inputs": [
        {
          "indexed": true,
          "internalType": "uint256",
          "name": "fromTokenId",
          "type": "uint256"
        },
        {
          "indexed": false,
          "internalType": "uint256",
          "name": "toTokenId",
          "type": "uint256"
        },
        {
          "indexed": true,
          "internalType": "address",
          "name": "from",
          "type": "address"
        },
        {
          "indexed": true,
          "internalType": "address",
          "name": "to",
          "type": "address"
        }
      ],
      "name": "ConsecutiveTransfer",
      "type": "event"
    },
    {
      "anonymous": false,
      "inputs": [
        {
          "indexed": false,
          "internalType": "string",
          "name": "prevURI",
          "type": "string"
        },
        {
          "indexed": false,
          "internalType": "string",
          "name": "newURI",
          "type": "string"
        }
      ],
      "name": "ContractURIUpdated",
      "type": "event"
    },
    {
      "anonymous": false,
      "inputs": [
        {
          "indexed": true,
          "internalType": "address",
          "name": "newRoyaltyRecipient",
          "type": "address"
        },
        {
          "indexed": false,
          "internalType": "uint256",
          "name": "newRoyaltyBps",
          "type": "uint256"
        }
      ],
      "name": "DefaultRoyalty",
      "type": "event"
    },
    {
      "anonymous": false,
      "inputs": [
        {
          "indexed": false,
          "internalType": "address",
          "name": "to",
          "type": "address"
        },
        {
          "indexed": false,
          "internalType": "string",
          "name": "tokenURI",
          "type": "string"
        }
      ],
      "name": "Minted",
      "type": "event"
    },
    {
      "anonymous": false,
      "inputs": [
        {
          "indexed": true,
          "internalType": "address",
          "name": "previousOwner",
          "type": "address"
        },
        {
          "indexed": true,
          "internalType": "address",
          "name": "newOwner",
          "type": "address"
        }
      ],
      "name": "OwnershipTransferred",
      "type": "event"
    },
    {
      "anonymous": false,
      "inputs": [
        {
          "indexed": true,
          "internalType": "uint256",
          "name": "tokenId",
          "type": "uint256"
        },
        {
          "indexed": true,
          "internalType": "address",
          "name": "royaltyRecipient",
          "type": "address"
        },
        {
          "indexed": false,
          "internalType": "uint256",
          "name": "royaltyBps",
          "type": "uint256"
        }
      ],
      "name": "RoyaltyForToken",
      "type": "event"
    },
    {
      "anonymous": false,
      "inputs": [
        {
          "indexed": true,
          "internalType": "address",
          "name": "from",
          "type": "address"
        },
        {
          "indexed": true,
          "internalType": "address",
          "name": "to",
          "type": "address"
        },
        {
          "indexed": true,
          "internalType": "uint256",
          "name": "tokenId",
          "type": "uint256"
        }
      ],
      "name": "Transfer",
      "type": "event"
    },
    {
      "inputs": [
        {
          "internalType": "uint256",
          "name": "_index",
          "type": "uint256"
        }
      ],
      "name": "_getBatchIdAtIndex",
      "outputs": [
        {
          "internalType": "uint256",
          "name": "",
          "type": "uint256"
        }
      ],
      "stateMutability": "view",
      "type": "function"
    },
    {
      "inputs": [
        {
          "internalType": "address",
          "name": "operator",
          "type": "address"
        },
        {
          "internalType": "uint256",
          "name": "tokenId",
          "type": "uint256"
        }
      ],
      "name": "approve",
      "outputs": [],
      "stateMutability": "payable",
      "type": "function"
    },
    {
      "inputs": [
        {
          "internalType": "address",
          "name": "owner",
          "type": "address"
        }
      ],
      "name": "balanceOf",
      "outputs": [
        {
          "internalType": "uint256",
          "name": "",
          "type": "uint256"
        }
      ],
      "stateMutability": "view",
      "type": "function"
    },
    {
      "inputs": [
        {
          "internalType": "address",
          "name": "_to",
          "type": "address"
        },
        {
          "internalType": "uint256",
          "name": "_quantity",
          "type": "uint256"
        },
        {
          "internalType": "string",
          "name": "_baseURI",
          "type": "string"
        }
      ],
      "name": "batchMintTo",
      "outputs": [],
      "stateMutability": "nonpayable",
      "type": "function"
    },
    {
      "inputs": [
        {
          "internalType": "uint256",
          "name": "_tokenId",
          "type": "uint256"
        }
      ],
      "name": "burn",
      "outputs": [],
      "stateMutability": "nonpayable",
      "type": "function"
    },
    {
      "inputs": [],
      "name": "contractURI",
      "outputs": [
        {
          "internalType": "string",
          "name": "",
          "type": "string"
        }
      ],
      "stateMutability": "view",
      "type": "function"
    },
    {
      "inputs": [
        {
          "internalType": "uint256",
          "name": "_tokenId",
          "type": "uint256"
        }
      ],
      "name": "exists",
      "outputs": [
        {
          "internalType": "bool",
          "name": "",
          "type": "bool"
        }
      ],
      "stateMutability": "nonpayable",
      "type": "function"
    },
    {
      "inputs": [
        {
          "internalType": "uint256",
          "name": "tokenId",
          "type": "uint256"
        }
      ],
      "name": "getApproved",
      "outputs": [
        {
          "internalType": "address",
          "name": "",
          "type": "address"
        }
      ],
      "stateMutability": "view",
      "type": "function"
    },
    {
      "inputs": [],
      "name": "getBaseURICount",
      "outputs": [
        {
          "internalType": "uint256",
          "name": "",
          "type": "uint256"
        }
      ],
      "stateMutability": "view",
      "type": "function"
    },
    {
      "inputs": [
        {
          "internalType": "uint256",
          "name": "_index",
          "type": "uint256"
        }
      ],
      "name": "getBatchIdAtIndex",
      "outputs": [
        {
          "internalType": "uint256",
          "name": "",
          "type": "uint256"
        }
      ],
      "stateMutability": "view",
      "type": "function"
    },
    {
      "inputs": [],
      "name": "getDefaultRoyaltyInfo",
      "outputs": [
        {
          "internalType": "address",
          "name": "",
          "type": "address"
        },
        {
          "internalType": "uint16",
          "name": "",
          "type": "uint16"
        }
      ],
      "stateMutability": "view",
      "type": "function"
    },
    {
      "inputs": [
        {
          "internalType": "uint256",
          "name": "_tokenId",
          "type": "uint256"
        }
      ],
      "name": "getRoyaltyInfoForToken",
      "outputs": [
        {
          "internalType": "address",
          "name": "",
          "type": "address"
        },
        {
          "internalType": "uint16",
          "name": "",
          "type": "uint16"
        }
      ],
      "stateMutability": "view",
      "type": "function"
    },
    {
      "inputs": [
        {
          "internalType": "string",
          "name": "_name",
          "type": "string"
        },
        {
          "internalType": "string",
          "name": "_symbol",
          "type": "string"
        },
        {
          "internalType": "address",
          "name": "_royaltyRecipient",
          "type": "address"
        },
        {
          "internalType": "uint16",
          "name": "_royaltyBps",
          "type": "uint16"
        }
      ],
      "name": "initialize",
      "outputs": [],
      "stateMutability": "nonpayable",
      "type": "function"
    },
    {
      "inputs": [
        {
          "internalType": "address",
          "name": "owner",
          "type": "address"
        },
        {
          "internalType": "address",
          "name": "operator",
          "type": "address"
        }
      ],
      "name": "isApprovedForAll",
      "outputs": [
        {
          "internalType": "bool",
          "name": "",
          "type": "bool"
        }
      ],
      "stateMutability": "view",
      "type": "function"
    },
    {
      "inputs": [
        {
          "internalType": "address",
          "name": "_operator",
          "type": "address"
        },
        {
          "internalType": "uint256",
          "name": "_tokenId",
          "type": "uint256"
        }
      ],
      "name": "isApprovedOrOwner",
      "outputs": [
        {
          "internalType": "bool",
          "name": "isApprovedOrOwnerOf",
          "type": "bool"
        }
      ],
      "stateMutability": "view",
      "type": "function"
    },
    {
      "inputs": [
        {
          "internalType": "address",
          "name": "_to",
          "type": "address"
        },
        {
          "internalType": "string",
          "name": "_tokenURI",
          "type": "string"
        }
      ],
      "name": "mintTo",
      "outputs": [],
      "stateMutability": "nonpayable",
      "type": "function"
    },
    {
      "inputs": [
        {
          "internalType": "bytes[]",
          "name": "data",
          "type": "bytes[]"
        }
      ],
      "name": "multicall",
      "outputs": [
        {
          "internalType": "bytes[]",
          "name": "results",
          "type": "bytes[]"
        }
      ],
      "stateMutability": "nonpayable",
      "type": "function"
    },
    {
      "inputs": [],
      "name": "name",
      "outputs": [
        {
          "internalType": "string",
          "name": "",
          "type": "string"
        }
      ],
      "stateMutability": "view",
      "type": "function"
    },
    {
      "inputs": [],
      "name": "nextTokenIdToMint",
      "outputs": [
        {
          "internalType": "uint256",
          "name": "",
          "type": "uint256"
        }
      ],
      "stateMutability": "view",
      "type": "function"
    },
    {
      "inputs": [],
      "name": "owner",
      "outputs": [
        {
          "internalType": "address",
          "name": "",
          "type": "address"
        }
      ],
      "stateMutability": "view",
      "type": "function"
    },
    {
      "inputs": [
        {
          "internalType": "uint256",
          "name": "tokenId",
          "type": "uint256"
        }
      ],
      "name": "ownerOf",
      "outputs": [
        {
          "internalType": "address",
          "name": "",
          "type": "address"
        }
      ],
      "stateMutability": "view",
      "type": "function"
    },
    {
      "inputs": [
        {
          "internalType": "uint256",
          "name": "tokenId",
          "type": "uint256"
        },
        {
          "internalType": "uint256",
          "name": "salePrice",
          "type": "uint256"
        }
      ],
      "name": "royaltyInfo",
      "outputs": [
        {
          "internalType": "address",
          "name": "receiver",
          "type": "address"
        },
        {
          "internalType": "uint256",
          "name": "royaltyAmount",
          "type": "uint256"
        }
      ],
      "stateMutability": "view",
      "type": "function"
    },
    {
      "inputs": [
        {
          "internalType": "address",
          "name": "from",
          "type": "address"
        },
        {
          "internalType": "address",
          "name": "to",
          "type": "address"
        },
        {
          "internalType": "uint256",
          "name": "tokenId",
          "type": "uint256"
        }
      ],
      "name": "safeTransferFrom",
      "outputs": [],
      "stateMutability": "payable",
      "type": "function"
    },
    {
      "inputs": [
        {
          "internalType": "address",
          "name": "from",
          "type": "address"
        },
        {
          "internalType": "address",
          "name": "to",
          "type": "address"
        },
        {
          "internalType": "uint256",
          "name": "tokenId",
          "type": "uint256"
        },
        {
          "internalType": "bytes",
          "name": "data",
          "type": "bytes"
        }
      ],
      "name": "safeTransferFrom",
      "outputs": [],
      "stateMutability": "payable",
      "type": "function"
    },
    {
      "inputs": [
        {
          "internalType": "address",
          "name": "operator",
          "type": "address"
        },
        {
          "internalType": "bool",
          "name": "approved",
          "type": "bool"
        }
      ],
      "name": "setApprovalForAll",
      "outputs": [],
      "stateMutability": "nonpayable",
      "type": "function"
    },
    {
      "inputs": [
        {
          "internalType": "string",
          "name": "_uri",
          "type": "string"
        }
      ],
      "name": "setContractURI",
      "outputs": [],
      "stateMutability": "nonpayable",
      "type": "function"
    },
    {
      "inputs": [
        {
          "internalType": "address",
          "name": "_royaltyRecipient",
          "type": "address"
        },
        {
          "internalType": "uint256",
          "name": "_royaltyBps",
          "type": "uint256"
        }
      ],
      "name": "setDefaultRoyaltyInfo",
      "outputs": [],
      "stateMutability": "nonpayable",
      "type": "function"
    },
    {
      "inputs": [
        {
          "internalType": "uint256",
          "name": "_tokenId",
          "type": "uint256"
        },
        {
          "internalType": "address",
          "name": "_recipient",
          "type": "address"
        },
        {
          "internalType": "uint256",
          "name": "_bps",
          "type": "uint256"
        }
      ],
      "name": "setRoyaltyInfoForToken",
      "outputs": [],
      "stateMutability": "nonpayable",
      "type": "function"
    },
    {
      "inputs": [
        {
          "internalType": "bytes4",
          "name": "interfaceId",
          "type": "bytes4"
        }
      ],
      "name": "supportsInterface",
      "outputs": [
        {
          "internalType": "bool",
          "name": "",
          "type": "bool"
        }
      ],
      "stateMutability": "view",
      "type": "function"
    },
    {
      "inputs": [],
      "name": "symbol",
      "outputs": [
        {
          "internalType": "string",
          "name": "",
          "type": "string"
        }
      ],
      "stateMutability": "view",
      "type": "function"
    },
    {
      "inputs": [
        {
          "internalType": "uint256",
          "name": "_tokenId",
          "type": "uint256"
        }
      ],
      "name": "tokenURI",
      "outputs": [
        {
          "internalType": "string",
          "name": "",
          "type": "string"
        }
      ],
      "stateMutability": "view",
      "type": "function"
    },
    {
      "inputs": [],
      "name": "totalSupply",
      "outputs": [
        {
          "internalType": "uint256",
          "name": "",
          "type": "uint256"
        }
      ],
      "stateMutability": "view",
      "type": "function"
    },
    {
      "inputs": [
        {
          "internalType": "address",
          "name": "from",
          "type": "address"
        },
        {
          "internalType": "address",
          "name": "to",
          "type": "address"
        },
        {
          "internalType": "uint256",
          "name": "tokenId",
          "type": "uint256"
        }
      ],
      "name": "transferFrom",
      "outputs": [],
      "stateMutability": "payable",
      "type": "function"
    },
    {
      "inputs": [
        {
          "internalType": "address",
          "name": "account",
          "type": "address"
        }
      ],
      "name": "transferOwnership",
      "outputs": [],
      "stateMutability": "nonpayable",
      "type": "function"
    }
  ],
  "bytecode": {
    "object": "0x608060405234801561001057600080fd5b50612f23806100206000396000f3fe6080604052600436106101f85760003560e01c8063600dd5ea1161010d578063a22cb465116100a0578063c87b56dd1161006f578063c87b56dd146105d7578063d28ce35e146105f7578063e8a3d48514610617578063e985e9c51461062c578063f2fde38b1461064c57600080fd5b8063a22cb4651461053f578063ac9650d81461055f578063b24f2d391461058c578063b88d4fde146105c457600080fd5b80638da5cb5b116100dc5780638da5cb5b146104d5578063938e3d7b146104ea57806395d89b411461050a5780639bcf7a151461051f57600080fd5b8063600dd5ea146104605780636352211e1461048057806363b45e2d146104a057806370a08231146104b557600080fd5b80632a55205a11610190578063430c20811161015f578063430c20811461039e5780634cc157df146103be5780634f558e79146104005780635003c7c3146104205780635881bfc11461044057600080fd5b80632a55205a146103175780633b1475a71461035657806342842e0e1461036b57806342966c681461037e57600080fd5b8063095ea7b3116101cc578063095ea7b3146102ae57806318160ddd146102c157806323b872dd146102e45780632419f51b146102f757600080fd5b806275a317146101fd57806301ffc9a71461021f57806306fdde0314610254578063081812fc14610276575b600080fd5b34801561020957600080fd5b5061021d6102183660046125c2565b61066c565b005b34801561022b57600080fd5b5061023f61023a366004612626565b610718565b60405190151581526020015b60405180910390f35b34801561026057600080fd5b5061026961075b565b60405161024b9190612693565b34801561028257600080fd5b506102966102913660046126a6565b6107f6565b6040516001600160a01b03909116815260200161024b565b61021d6102bc3660046126bf565b610843565b3480156102cd57600080fd5b506102d661085c565b60405190815260200161024b565b61021d6102f23660046126e9565b61087b565b34801561030357600080fd5b506102d66103123660046126a6565b6108a6565b34801561032357600080fd5b50610337610332366004612725565b6108b1565b604080516001600160a01b03909316835260208301919091520161024b565b34801561036257600080fd5b506102d66108ee565b61021d6103793660046126e9565b6108fd565b34801561038a57600080fd5b5061021d6103993660046126a6565b610922565b3480156103aa57600080fd5b5061023f6103b93660046126bf565b610930565b3480156103ca57600080fd5b506103de6103d93660046126a6565b61098f565b604080516001600160a01b03909316835261ffff90911660208301520161024b565b34801561040c57600080fd5b5061023f61041b3660046126a6565b6109a4565b34801561042c57600080fd5b5061021d61043b366004612747565b6109af565b34801561044c57600080fd5b5061021d61045b36600461279e565b610a5b565b34801561046c57600080fd5b5061021d61047b3660046126bf565b610c02565b34801561048c57600080fd5b5061029661049b3660046126a6565b610c34565b3480156104ac57600080fd5b506102d6610c3f565b3480156104c157600080fd5b506102d66104d036600461282c565b610c49565b3480156104e157600080fd5b50610296610cb2565b3480156104f657600080fd5b5061021d610505366004612847565b610cbc565b34801561051657600080fd5b50610269610ce9565b34801561052b57600080fd5b5061021d61053a36600461287c565b610d01565b34801561054b57600080fd5b5061021d61055a3660046128af565b610d30565b34801561056b57600080fd5b5061057f61057a3660046128e6565b610d44565b60405161024b919061295b565b34801561059857600080fd5b50600080516020612e6e833981519152546001600160a01b03811690600160a01b900461ffff166103de565b61021d6105d23660046129bd565b610e5f565b3480156105e357600080fd5b506102696105f23660046126a6565b610e85565b34801561060357600080fd5b506102d66106123660046126a6565b610ee2565b34801561062357600080fd5b50610269610f5d565b34801561063857600080fd5b5061023f610647366004612a39565b610f67565b34801561065857600080fd5b5061021d61066736600461282c565b610fa4565b610674610fe6565b6106bf5760405162461bcd60e51b81526020600482015260176024820152762737ba1030baba3437b934bd32b2103a379036b4b73a1760491b60448201526064015b60405180910390fd5b6106d06106ca611009565b82611019565b6106db8260016110ad565b7f0c1b180fbb60448c5491c5ddc7c3a923854214b9ff70f90a7821333338971f92828260405161070c929190612a6c565b60405180910390a15050565b6001600160e01b0319811660009081527ffc606c433378e3a7e0a6a531deac289b66caa1b4aa8554fd4ab2c6f1570f92d8602052604081205460ff165b92915050565b60606107656110c7565b600201805461077390612a90565b80601f016020809104026020016040519081016040528092919081815260200182805461079f90612a90565b80156107ec5780601f106107c1576101008083540402835291602001916107ec565b820191906000526020600020905b8154815290600101906020018083116107cf57829003601f168201915b5050505050905090565b6000610801826110eb565b61081e576040516333d1c03960e21b815260040160405180910390fd5b6108266110c7565b60009283526006016020525060409020546001600160a01b031690565b8161084d81611127565b61085783836111e0565b505050565b6000806108676110c7565b600101546108736110c7565b540303919050565b826001600160a01b03811633146108955761089533611127565b6108a08484846111ec565b50505050565b600061075582610ee2565b6000806000806108c0866113d1565b90945084925061ffff1690506127106108d98287612ae0565b6108e39190612b15565b925050509250929050565b60006108f8611009565b905090565b826001600160a01b03811633146109175761091733611127565b6108a0848484611472565b61092d81600161148d565b50565b60008061093c83610c34565b9050806001600160a01b0316846001600160a01b0316148061096357506109638185610f67565b806109875750836001600160a01b031661097c846107f6565b6001600160a01b0316145b949350505050565b60008061099b836113d1565b91509150915091565b6000610755826110eb565b6109b7610fe6565b6109fd5760405162461bcd60e51b81526020600482015260176024820152762737ba1030baba3437b934bd32b2103a379036b4b73a1760491b60448201526064016106b6565b610a0f610a08611009565b83836115fc565b5050610a1b83836110ad565b7f5443e3e7d8342ad07aca2b5d0e1679e55e0fb2c09df232251ce9acbb22c75465838383604051610a4e93929190612b29565b60405180910390a1505050565b600080516020612ece83398151915254610100900460ff16610a9057600080516020612ece8339815191525460ff1615610a94565b303b155b610b065760405162461bcd60e51b815260206004820152603760248201527f455243373231415f5f496e697469616c697a61626c653a20636f6e747261637460448201527f20697320616c726561647920696e697469616c697a656400000000000000000060648201526084016106b6565b600080516020612ece83398151915254610100900460ff16158015610b4257600080516020612ece833981519152805461ffff19166101011790555b610b4c858561168d565b610b55336116cb565b610b63838361ffff16611745565b610b82733cc6cdda760b79bafa08df41ecfa224f810dceb660016117fe565b610b946301ffc9a760e01b6001611976565b610ba66380ac58cd60e01b6001611976565b610bb8635b5e139f60e01b6001611976565b610bca63152a902d60e11b6001611976565b610bdc633d96f4ff60e11b6001611976565b8015610bfb57600080516020612ece833981519152805461ff00191690555b5050505050565b610c0a610fe6565b610c265760405162461bcd60e51b81526004016106b690612b59565b610c308282611745565b5050565b6000610755826119ec565b60006108f8611a91565b60006001600160a01b038216610c72576040516323d3ad8160e21b815260040160405180910390fd5b67ffffffffffffffff610c836110c7565b6005016000846001600160a01b03166001600160a01b0316815260200190815260200160002054169050919050565b60006108f8611aa7565b610cc4610fe6565b610ce05760405162461bcd60e51b81526004016106b690612b59565b61092d81611ad5565b6060610cf36110c7565b600301805461077390612a90565b610d09610fe6565b610d255760405162461bcd60e51b81526004016106b690612b59565b610857838383611bc9565b81610d3a81611127565b6108578383611ccc565b60608167ffffffffffffffff811115610d5f57610d5f61250f565b604051908082528060200260200182016040528015610d9257816020015b6060815260200190600190039081610d7d5790505b50905060005b82811015610e585760008030868685818110610db657610db6612b81565b9050602002810190610dc89190612b97565b604051610dd6929190612be5565b600060405180830381855af49150503d8060008114610e11576040519150601f19603f3d011682016040523d82523d6000602084013e610e16565b606091505b50915091508115610e445780848481518110610e3457610e34612b81565b6020026020010181905250610e4e565b3d6000803e3d6000fd5b5050600101610d98565b5092915050565b836001600160a01b0381163314610e7957610e7933611127565b610bfb85858585611d49565b60606000610e9283611d8d565b805190915015610ea25792915050565b6000610ead84611e4e565b905080610eb985611ff8565b604051602001610eca929190612bf5565b60405160208183030381529060405292505050919050565b6000610eec611a91565b8210610f2a5760405162461bcd60e51b815260206004820152600d60248201526c092dcecc2d8d2c840d2dcc8caf609b1b60448201526064016106b6565b600080516020612e8e833981519152805483908110610f4b57610f4b612b81565b90600052602060002001549050919050565b60606108f86120f9565b6000610f716110c7565b6001600160a01b039384166000908152600791909101602090815260408083209490951682529290925250205460ff1690565b610fac611aa7565b6001600160a01b0316336001600160a01b031614610fdd57604051632f7a8ee160e01b815260040160405180910390fd5b61092d81612127565b6000610ff0611aa7565b6001600160a01b0316336001600160a01b031614905090565b60006110136110c7565b54919050565b60008281527fd99b3a829832048f6be28ec488f80e0f5f986977f6b9d7f4b1ab0ac1e524c9ee60208190526040909120805461105490612a90565b1590506110955760405162461bcd60e51b815260206004820152600f60248201526e15549248185b1c9958591e481cd95d608a1b60448201526064016106b6565b60008381526020829052604090206108a08382612c6a565b610c30828260405180602001604052806000815250612130565b7f2569078dfb4b0305704d3008e7403993ae9601b85f7ae5e742de3de8f8011c4090565b60006110f56110c7565b54821080156107555750600160e01b61110c6110c7565b60008481526004919091016020526040902054161592915050565b6daaeb6d7670e522a718067333cd4e3b1561092d57604051633185c44d60e21b81523060048201526001600160a01b03821660248201526daaeb6d7670e522a718067333cd4e9063c617113490604401602060405180830381865afa158015611194573d6000803e3d6000fd5b505050506040513d601f19601f820116820180604052508101906111b89190612d2a565b61092d57604051633b79c77360e21b81526001600160a01b03821660048201526024016106b6565b610c30828260016121a6565b60006111f7826119ec565b9050836001600160a01b0316816001600160a01b03161461122a5760405162a1148160e81b815260040160405180910390fd5b6000806112368461225b565b9150915061125b81876112463390565b6001600160a01b039081169116811491141790565b611286576112698633610f67565b61128657604051632ce44b5f60e11b815260040160405180910390fd5b6001600160a01b0385166112ad57604051633a954ecd60e21b815260040160405180910390fd5b80156112b857600082555b6112c06110c7565b6001600160a01b03871660009081526005919091016020526040902080546000190190556112ec6110c7565b6001600160a01b03861660008181526005929092016020526040909120805460010190554260a01b17600160e11b176113236110c7565b60008681526004919091016020526040812091909155600160e11b8416900361139957600184016113526110c7565b600082815260049190910160205260408120549003611397576113736110c7565b54811461139757836113836110c7565b600083815260049190910160205260409020555b505b83856001600160a01b0316876001600160a01b0316600080516020612eae83398151915260405160405180910390a45b505050505050565b60008181527f20211f9d4ae667a819d1f429099f8aeebe331e6fa4cf5eff02d28f6060b7d6e8602090815260408083208151808301909252546001600160a01b038116808352600160a01b90910461ffff16928201929092528291600080516020612e6e83398151915291901561144e5780516020820151611467565b81546001600160a01b03811690600160a01b900461ffff165b935093505050915091565b61085783838360405180602001604052806000815250610e5f565b6000611498836119ec565b9050806000806114a78661225b565b9150915084156114e7576114bc818433611246565b6114e7576114ca8333610f67565b6114e757604051632ce44b5f60e11b815260040160405180910390fd5b80156114f257600082555b6fffffffffffffffffffffffffffffffff61150b6110c7565b6001600160a01b038516600081815260059290920160205260409091208054929092019091554260a01b17600360e01b176115446110c7565b60008881526004919091016020526040812091909155600160e11b851690036115ba57600186016115736110c7565b6000828152600491909101602052604081205490036115b8576115946110c7565b5481146115b857846115a46110c7565b600083815260049190910160205260409020555b505b60405186906000906001600160a01b03861690600080516020612eae833981519152908390a46115e86110c7565b600190810180549091019055505050505050565b6000806116098486612d47565b600080516020612e8e83398151915280546001810182557f1ced185bbf9482d38b4865a74eda9abbaa19023b28195b15e6e70dbf9d8ee7e70182905560008281527f09b74f8b9562e7c2d8089de59107ad15ceff2ad41fceff9c15cfd0131840330b60205260409020919350839250906116838582612c6a565b5050935093915050565b600080516020612ece83398151915254610100900460ff166116c15760405162461bcd60e51b81526004016106b690612d5a565b610c308282612283565b7f8a22373512790c48b83a1fe2efdd2888d4a917bcdc24d0adf63e60f67168046080546040516001600160a01b038481169216907f8be0079c531659141344cd1fd0a4f28419497f9722a3daafe3b4186f6b6457e090600090a380546001600160a01b0319166001600160a01b0392909216919091179055565b6127108111156117895760405162461bcd60e51b815260206004820152600f60248201526e45786365656473206d61782062707360881b60448201526064016106b6565b6000600080516020612e6e83398151915280546001600160a01b0385166001600160b01b03199091168117600160a01b61ffff861602178255604051848152919250907f90d7ec04bcb8978719414f82e52e4cb651db41d0e6f8cea6118c2191e6183adb9060200160405180910390a2505050565b6daaeb6d7670e522a718067333cd4e3b15610c305760405163c3c5a54760e01b81523060048201526daaeb6d7670e522a718067333cd4e9063c3c5a547906024016020604051808303816000875af115801561185e573d6000803e3d6000fd5b505050506040513d601f19601f820116820180604052508101906118829190612d2a565b610c305780156118f657604051633e9f1edf60e11b81523060048201526001600160a01b03831660248201526daaeb6d7670e522a718067333cd4e90637d3e3dbe906044015b600060405180830381600087803b1580156118e257600080fd5b505af11580156113c9573d6000803e3d6000fd5b6001600160a01b038216156119455760405163a0af290360e01b81523060048201526001600160a01b03831660248201526daaeb6d7670e522a718067333cd4e9063a0af2903906044016118c8565b604051632210724360e11b81523060048201526daaeb6d7670e522a718067333cd4e90634420e486906024016118c8565b6001600160e01b031980831690036119a15760405163b0a19dd560e01b815260040160405180910390fd5b6001600160e01b03199190911660009081527ffc606c433378e3a7e0a6a531deac289b66caa1b4aa8554fd4ab2c6f1570f92d860205260409020805460ff1916911515919091179055565b60006119f66110c7565b600083815260049190910160205260408120549150600160e01b82169003611a785780600003611a7357611a286110c7565b548210611a4857604051636f96cda160e11b815260040160405180910390fd5b611a506110c7565b600019909201600081815260049390930160205260409092205490508015611a48575b919050565b604051636f96cda160e11b815260040160405180910390fd5b6000600080516020612e8e833981519152611013565b7f8a22373512790c48b83a1fe2efdd2888d4a917bcdc24d0adf63e60f671680460546001600160a01b031690565b7f377d51b8f3c321ac06c08d08eb5924030a0062cf68630d0ace73345d5f49f6fd80546000908290611b0690612a90565b80601f0160208091040260200160405190810160405280929190818152602001828054611b3290612a90565b8015611b7f5780601f10611b5457610100808354040283529160200191611b7f565b820191906000526020600020905b815481529060010190602001808311611b6257829003601f168201915b5050505050905082826000019081611b979190612c6a565b507fc9c7c3fe08b88b4df9d4d47ef47d2c43d55c025a0ba88ca442580ed9e7348a168184604051610a4e929190612dae565b612710811115611c0d5760405162461bcd60e51b815260206004820152600f60248201526e45786365656473206d61782062707360881b60448201526064016106b6565b6040805180820182526001600160a01b0384811680835261ffff858116602080860191825260008a81527f20211f9d4ae667a819d1f429099f8aeebe331e6fa4cf5eff02d28f6060b7d6e88252879020955186549251909316600160a01b026001600160b01b031990921692909416919091171790925582518481529251600080516020612e6e8339815191529387927f7365cf4122f072a3365c20d54eff9b38d73c096c28e1892ec8f5b0e403a0f12d92918290030190a350505050565b80611cd56110c7565b336000818152600792909201602090815260408084206001600160a01b03881680865290835293819020805460ff19169515159590951790945592518415158152919290917f17307eab39ab6107e8899845ad3d59bd9653f200f220920489ca2b5937696c31910160405180910390a35050565b611d5484848461087b565b6001600160a01b0383163b156108a057611d70848484846122f6565b6108a0576040516368d2bf6b60e11b815260040160405180910390fd5b60008181527fd99b3a829832048f6be28ec488f80e0f5f986977f6b9d7f4b1ab0ac1e524c9ee60205260409020805460609190611dc990612a90565b80601f0160208091040260200160405190810160405280929190818152602001828054611df590612a90565b8015611e425780601f10611e1757610100808354040283529160200191611e42565b820191906000526020600020905b815481529060010190602001808311611e2557829003601f168201915b50505050509050919050565b6060600080516020612e8e8339815191526000611e69611a91565b825460408051602080840282018101909252828152929350600092918591830182828015611eb657602002820191906000526020600020905b815481526020019060010190808311611ea2575b5050505050905060005b82811015611fbd57818181518110611eda57611eda612b81565b6020026020010151861015611fab57836001016000838381518110611f0157611f01612b81565b602002602001015181526020019081526020016000208054611f2290612a90565b80601f0160208091040260200160405190810160405280929190818152602001828054611f4e90612a90565b8015611f9b5780601f10611f7057610100808354040283529160200191611f9b565b820191906000526020600020905b815481529060010190602001808311611f7e57829003601f168201915b5050505050945050505050919050565b611fb6600182612d47565b9050611ec0565b5060405162461bcd60e51b815260206004820152600f60248201526e125b9d985b1a59081d1bdad95b9259608a1b60448201526064016106b6565b60608160000361201f5750506040805180820190915260018152600360fc1b602082015290565b8160005b8115612049578061203381612dd3565b91506120429050600a83612b15565b9150612023565b60008167ffffffffffffffff8111156120645761206461250f565b6040519080825280601f01601f19166020018201604052801561208e576020820181803683370190505b5090505b8415610987576120a3600183612dec565b91506120b0600a86612dff565b6120bb906030612d47565b60f81b8183815181106120d0576120d0612b81565b60200101906001600160f81b031916908160001a9053506120f2600a86612b15565b9450612092565b60607f377d51b8f3c321ac06c08d08eb5924030a0062cf68630d0ace73345d5f49f6fd805461077390612a90565b61092d816116cb565b61213a83836123e1565b6001600160a01b0383163b156108575760006121546110c7565b5490508281035b61216e60008683806001019450866122f6565b61218b576040516368d2bf6b60e11b815260040160405180910390fd5b81811061215b578161219b6110c7565b5414610bfb57600080fd5b60006121b183610c34565b905081156121f057336001600160a01b038216146121f0576121d38133610f67565b6121f0576040516367d9dca160e11b815260040160405180910390fd5b836121f96110c7565b6000858152600691909101602052604080822080546001600160a01b0319166001600160a01b0394851617905551859287811692908516917f8c5be1e5ebec7d5bd14f71427d1e84f3dd0314c0f7b2291e5b200ac8c7c3b9259190a450505050565b60008060006122686110c7565b60009485526006016020525050604090912080549092909150565b600080516020612ece83398151915254610100900460ff166122b75760405162461bcd60e51b81526004016106b690612d5a565b816122c06110c7565b600201906122ce9082612c6a565b50806122d86110c7565b600301906122e69082612c6a565b5060006122f16110c7565b555050565b604051630a85bd0160e11b81526000906001600160a01b0385169063150b7a029061232b903390899088908890600401612e13565b6020604051808303816000875af1925050508015612366575060408051601f3d908101601f1916820190925261236391810190612e50565b60015b6123c4573d808015612394576040519150601f19603f3d011682016040523d82523d6000602084013e612399565b606091505b5080516000036123bc576040516368d2bf6b60e11b815260040160405180910390fd5b805181602001fd5b6001600160e01b031916630a85bd0160e11b149050949350505050565b60006123eb6110c7565b54905060008290036124105760405163b562e8dd60e01b815260040160405180910390fd5b6801000000000000000182026124246110c7565b6001600160a01b038516600081815260059290920160205260409091208054929092019091554260a01b6001841460e11b171761245f6110c7565b600083815260049190910160205260408120919091556001600160a01b038416908383019083908390600080516020612eae8339815191528180a4600183015b8181146124c55780836000600080516020612eae833981519152600080a460010161249f565b50816000036124e657604051622e076360e81b815260040160405180910390fd5b806124ef6110c7565b55506108579050565b80356001600160a01b0381168114611a7357600080fd5b634e487b7160e01b600052604160045260246000fd5b600067ffffffffffffffff808411156125405761254061250f565b604051601f8501601f19908116603f011681019082821181831017156125685761256861250f565b8160405280935085815286868601111561258157600080fd5b858560208301376000602087830101525050509392505050565b600082601f8301126125ac57600080fd5b6125bb83833560208501612525565b9392505050565b600080604083850312156125d557600080fd5b6125de836124f8565b9150602083013567ffffffffffffffff8111156125fa57600080fd5b6126068582860161259b565b9150509250929050565b6001600160e01b03198116811461092d57600080fd5b60006020828403121561263857600080fd5b81356125bb81612610565b60005b8381101561265e578181015183820152602001612646565b50506000910152565b6000815180845261267f816020860160208601612643565b601f01601f19169290920160200192915050565b6020815260006125bb6020830184612667565b6000602082840312156126b857600080fd5b5035919050565b600080604083850312156126d257600080fd5b6126db836124f8565b946020939093013593505050565b6000806000606084860312156126fe57600080fd5b612707846124f8565b9250612715602085016124f8565b9150604084013590509250925092565b6000806040838503121561273857600080fd5b50508035926020909101359150565b60008060006060848603121561275c57600080fd5b612765846124f8565b925060208401359150604084013567ffffffffffffffff81111561278857600080fd5b6127948682870161259b565b9150509250925092565b600080600080608085870312156127b457600080fd5b843567ffffffffffffffff808211156127cc57600080fd5b6127d88883890161259b565b955060208701359150808211156127ee57600080fd5b506127fb8782880161259b565b93505061280a604086016124f8565b9150606085013561ffff8116811461282157600080fd5b939692955090935050565b60006020828403121561283e57600080fd5b6125bb826124f8565b60006020828403121561285957600080fd5b813567ffffffffffffffff81111561287057600080fd5b6109878482850161259b565b60008060006060848603121561289157600080fd5b83359250612715602085016124f8565b801515811461092d57600080fd5b600080604083850312156128c257600080fd5b6128cb836124f8565b915060208301356128db816128a1565b809150509250929050565b600080602083850312156128f957600080fd5b823567ffffffffffffffff8082111561291157600080fd5b818501915085601f83011261292557600080fd5b81358181111561293457600080fd5b8660208260051b850101111561294957600080fd5b60209290920196919550909350505050565b6000602080830181845280855180835260408601915060408160051b870101925083870160005b828110156129b057603f1988860301845261299e858351612667565b94509285019290850190600101612982565b5092979650505050505050565b600080600080608085870312156129d357600080fd5b6129dc856124f8565b93506129ea602086016124f8565b925060408501359150606085013567ffffffffffffffff811115612a0d57600080fd5b8501601f81018713612a1e57600080fd5b612a2d87823560208401612525565b91505092959194509250565b60008060408385031215612a4c57600080fd5b612a55836124f8565b9150612a63602084016124f8565b90509250929050565b6001600160a01b038316815260406020820181905260009061098790830184612667565b600181811c90821680612aa457607f821691505b602082108103612ac457634e487b7160e01b600052602260045260246000fd5b50919050565b634e487b7160e01b600052601160045260246000fd5b6000816000190483118215151615612afa57612afa612aca565b500290565b634e487b7160e01b600052601260045260246000fd5b600082612b2457612b24612aff565b500490565b60018060a01b0384168152826020820152606060408201526000612b506060830184612667565b95945050505050565b6020808252600e908201526d139bdd08185d5d1a1bdc9a5e995960921b604082015260600190565b634e487b7160e01b600052603260045260246000fd5b6000808335601e19843603018112612bae57600080fd5b83018035915067ffffffffffffffff821115612bc957600080fd5b602001915036819003821315612bde57600080fd5b9250929050565b8183823760009101908152919050565b60008351612c07818460208801612643565b835190830190612c1b818360208801612643565b01949350505050565b601f82111561085757600081815260208120601f850160051c81016020861015612c4b5750805b601f850160051c820191505b818110156113c957828155600101612c57565b815167ffffffffffffffff811115612c8457612c8461250f565b612c9881612c928454612a90565b84612c24565b602080601f831160018114612ccd5760008415612cb55750858301515b600019600386901b1c1916600185901b1785556113c9565b600085815260208120601f198616915b82811015612cfc57888601518255948401946001909101908401612cdd565b5085821015612d1a5787850151600019600388901b60f8161c191681555b5050505050600190811b01905550565b600060208284031215612d3c57600080fd5b81516125bb816128a1565b8082018082111561075557610755612aca565b60208082526034908201527f455243373231415f5f496e697469616c697a61626c653a20636f6e7472616374604082015273206973206e6f7420696e697469616c697a696e6760601b606082015260800190565b604081526000612dc16040830185612667565b8281036020840152612b508185612667565b600060018201612de557612de5612aca565b5060010190565b8181038181111561075557610755612aca565b600082612e0e57612e0e612aff565b500690565b6001600160a01b0385811682528416602082015260408101839052608060608201819052600090612e4690830184612667565b9695505050505050565b600060208284031215612e6257600080fd5b81516125bb8161261056fe20211f9d4ae667a819d1f429099f8aeebe331e6fa4cf5eff02d28f6060b7d6e709b74f8b9562e7c2d8089de59107ad15ceff2ad41fceff9c15cfd0131840330addf252ad1be2c89b69c2b068fc378daa952ba7f163c4a11628f55a4df523b3efee151c8401928dc223602bb187aff91b9a56c7cae5476ef1b3287b085a16c85fa2646970667358221220726f2c0c4c8507c9057906db38b381e7e7c8652fbade4f11ac25e2af7be85b0964736f6c63430008100033",
    "linkReferences": {}
  },
  "methodIdentifiers": {
    "_getBatchIdAtIndex(uint256)": "d28ce35e",
    "approve(address,uint256)": "095ea7b3",
    "balanceOf(address)": "70a08231",
    "batchMintTo(address,uint256,string)": "5003c7c3",
    "burn(uint256)": "42966c68",
    "contractURI()": "e8a3d485",
    "exists(uint256)": "4f558e79",
    "getApproved(uint256)": "081812fc",
    "getBaseURICount()": "63b45e2d",
    "getBatchIdAtIndex(uint256)": "2419f51b",
    "getDefaultRoyaltyInfo()": "b24f2d39",
    "getRoyaltyInfoForToken(uint256)": "4cc157df",
    "initialize(string,string,address,uint16)": "5881bfc1",
    "isApprovedForAll(address,address)": "e985e9c5",
    "isApprovedOrOwner(address,uint256)": "430c2081",
    "mintTo(address,string)": "0075a317",
    "multicall(bytes[])": "ac9650d8",
    "name()": "06fdde03",
    "nextTokenIdToMint()": "3b1475a7",
    "owner()": "8da5cb5b",
    "ownerOf(uint256)": "6352211e",
    "royaltyInfo(uint256,uint256)": "2a55205a",
    "safeTransferFrom(address,address,uint256)": "42842e0e",
    "safeTransferFrom(address,address,uint256,bytes)": "b88d4fde",
    "setApprovalForAll(address,bool)": "a22cb465",
    "setContractURI(string)": "938e3d7b",
    "setDefaultRoyaltyInfo(address,uint256)": "600dd5ea",
    "setRoyaltyInfoForToken(uint256,address,uint256)": "9bcf7a15",
    "supportsInterface(bytes4)": "01ffc9a7",
    "symbol()": "95d89b41",
    "tokenURI(uint256)": "c87b56dd",
    "totalSupply()": "18160ddd",
    "transferFrom(address,address,uint256)": "23b872dd",
    "transferOwnership(address)": "f2fde38b"
  },
  "id": 92
}